S113800020592043494E434F3043494E434F304457
S113801049455A305155494E4345305645494E54C9
S113802045305645494E544943494E434F305452C6
S113803045494E54413043554152454E54413043D5
S1138040494E4355454E544130534553454E544192
S113805030534554454E5441304F4348454E5441A6
S1138060304E4F56454E5441304349454E304349B6
S1138070454E544F30444F534349454E544F53306B
S1138080545245534349454E544F5330435541543C
S1138090524F4349454E544F53305155494E49452B
S11380A04E544F5330534549534349454E544F530F
S11380B030534554454349454E544F53304F43483C
S11380C04F4349454E544F53304E4F56454349450F
S11380D04E544F53304D494C30444F53204D494C2E
S11380E03054524553204D494C3043554154524F1E
S11380F0204D494C3043494E434F204D494C305359
S1138100454953204D494C305349455445204D4928
S11381104C304F43484F204D494C304E5545564501
S1138120204D494C307F00257F002A18CE00608600
S1138130FF18A7001808188C00E027037E81311867
S1138140CE0000CE0000CC00B0DD3018A6268101A0
S11381502723810227288103272D810427328105C3
S113816027378106273C8107274181082746810953
S1138170274B7E81C6CE80D5BD83527E81C6CE80FC
S1138180D9BD83527E81C6CE80E1BD83527E81C635
S1138190CE80EABD83527E81C6CE80F5BD83527EF9
S11381A081C6CE80FFBD83527E81C6CE8108BD8349
S11381B0527E81C6CE8112BD83527E81C6CE811B82
S11381C0BD83527E81C61808CC00C0DD3018A626B7
S11381D08101272381022752810327578104275CC9
S11381E081052761810627668107276B810827702F
S11381F0810927757E8287180818A6268100270B17
S1138200CE806EBD835218097E8287180818A62670
S11382108100270DCE806EBD8352180918097E8215
S113822087CE8069BD83527E8272CE8075BD8352B3
S11382307E8287CE8080BD83527E8287CE808CBD35
S113824083527E8287CE809ABD83527E8287CE807F
S1138250A5BD83527E8287CE80B1BD83527E828744
S1138260CE80BDBD83527E8287CE80C9BD83527EBF
S11382708287017E8272BD837027037E8272CE80E4
S113828009BD83527E82721808CC00D0DD3018A656
S113829026810027E1810127208102272A810327E3
S11382A0348104273E810527488106275281072708
S11382B05C8108276681092770BD83702779CE8089
S11382C00FBD83527E8272BD83702774CE801BBD26
S11382D083527E8272CE802EBD8352BD8370276905
S11382E07E8272CE8036BD8352BD8370275B7E82D0
S11382F072CE803FBD8352BD8370274D7E8272CE85
S11383008049BD8352BD8370273F7E8272CE8051E7
S1138310BD8352BD837027317E8272CE8059BD8366
S113832052BD837027237E8272CE8061BD8352BD8D
S1138330837027157E8272CE8014BD83527E827232
S1138340CE8022BD83527E8272CE8000BD83527E57
S11383508272A6008130271718DF3218DE3018A782
S11383600018DE3208DC30C30001DD307E83523970
S10B8370180818A6268105393E
S9030000FC
