S113800020202020204552524F5220202020202082
S11380106E29783530202020206E297831303020A8
S113802020206E29783230302020206E2978333099
S1138030302020206E29783430302020206E4152A8
S1138040543A6E2020544F543A6E41286E42286EA2
S113805043286E44286E45286E2020202020544951
S1138060434B455420202020206E20592043494E64
S1138070434F6E43494E434F6E4449455A6E5155E2
S1138080494E43456E5645494E54456E5645494EF4
S1138090544943494E434F6E545245494E54416EE0
S11380A043554152454E54416E43494E4355454E06
S11380B054416E534553454E54416E534554454EB9
S11380C054416E4F4348454E54416E4E4F56454EB3
S11380D054416E4349454E6E4349454E544F6E4498
S11380E04F534349454E544F536E5452455343499D
S11380F0454E544F536E43554154524F4349454E98
S1138100544F536E5155494E49454E544F536E5337
S11381104549534349454E544F536E534554454383
S113812049454E544F536E4F43484F4349454E546F
S11381304F536E4E4F56454349454E544F536E4D23
S1138140494C6E444F53204D494C6E545245532074
S11381504D494C6E43554154524F204D494C6E434A
S1138160494E434F204D494C6E53454953204D4988
S11381704C6E5349455445204D494C6E4F43484F2E
S1138180204D494C6E4E55455645204D494C6E8EFA
S113819000EEBD87C97F00027F00037F00047F00DB
S11381A0057F00067F00077F00087F00097F000A23
S11381B07F000B7F000C7F000D7F001A7F001B7F68
S11381C0001C7F001D7F001E7F001F7F001718CE3C
S11381D00000863F97009600813F27FA812B27F203
S11381E0813D273A81232730D61F2E7681452303EC
S11381F0BD820E8141272A814227338143273C8156
S11382004427458145274E8141250A7E81D2817AC2
S113821022038020397E83CB7C001F7E81D27E8323
S1138220DFDC02C30032DD027C001A7E81D2DC0472
S1138230C30064DD047C001B7E81D2DC06C300C85D
S1138240DD067C001C7E81D2DC08C3012CDD087CA9
S1138250001D7E81D2DC0AC30190DD0A7C001E7EF3
S113826081D281452303BD820E8141271781422794
S1138270238143272F8144273B814527478141257B
S1138280947E81D2DC02830032DD027A001A7F0000
S11382901F7E81D2DC04830064DD047A001B7F002E
S11382A01F7E81D2DC068300C8DD067A001C7F00B5
S11382B01F7E81D2DC0883012CDD087A001D7F003B
S11382C01F7E81D2DC0A830190DD0A7A001E7F00C2
S11382D01F7E81D2BD82EABD8317BD8344BD8371F5
S11382E0BD839E39CE0002028F39D61AC102270DF2
S11382F0C103270FC1042711C105241339CC005031
S1138300DD0239CC0069DD0239CC0078DD0239DCCC
S113831002BD82E4DD0239D61BC102270DC1032749
S11383200FC1042711C105241339CC00A0DD043981
S1138330CC00D2DD0439CC00F0DD0439DC04BD828C
S1138340E4DD0439D61CC102270DC103270FC10483
S11383502711C105241339CC0140DD0639CC01A411
S1138360DD0639CC01E0DD0639DC06BD82E4DD063C
S113837039D61DC102270DC103270FC1042711C11E
S113838005241339CC01E0DD0839CC0276DD083947
S1138390CC02D0DD0839DC08BD82E4DD0839D61E04
S11383A0C102270DC103270FC1042711C1052413DE
S11383B039CC0280DD0A39CC0348DD0A39CC03C04C
S11383C0DD0A39DC0ABD82E4DD0A39BD844DCE8084
S11383D000CC0080DD15BD87A37E83DC7E83DCBDFD
S11383E082D4CC0000D3021A83270F22DED3041ACE
S11383F083270F22D6D3061A83270F22CED3081A37
S113840083270F22C6D30A1A83270F22BEDD0CBD91
S1138410844D7E84977F00107F00117F00127F00BF
S1138420137F00141A8300002722CE2710028FD74F
S1138430108FCE03E8028FD7118FCE0064028FD73E
S1138440128FCE000A028FD7138FD7143918CE009B
S11384502086FF18A7001808188C00E027037E84E4
S11384605339CE000018DE158C0004270DA6118B9D
S11384703018A7000818087E846839CE000218DE78
S1138480158C0004270DA6118B3018A700081808B6
S11384907E848118DF1539CC0020DD15CE8059BDCE
S11384A087A3CC0030DD15CE804ABD87A3D61A4FF2
S11384B0BD8415BD847BCE8011BD87A3DC02BD8441
S11384C015BD8462CC0040DD15CE804DBD87A3D69A
S11384D01B4FBD8415BD847BCE801ABD87A3DC04ED
S11384E0BD8415BD8462CC0050DD15CE8050BD879F
S11384F0A3D61C4FBD8415BD847BCE8023BD87A32A
S1138500DC06BD8415BD8462CC0060DD15CE8053CD
S1138510BD87A3D61D4FBD8415BD847BCE802CBDE5
S113852087A3DC08BD8415BD8462CC0070DD15CE44
S11385308056BD87A3D61E4FBD8415BD847BCE80D7
S113854035BD87A3DC0ABD8415BD8462CC0080DD03
S113855015CE803EBD87A3D61ADB1BDB1CDB1DDBDF
S11385601E8600BD8415BD847BCE8043BD87A3DCFD
S11385700CBD8415BD8462DC0C18CE0003BD8415CB
S113858018CE0000CE0000CC00A0DD1518A6118185
S1138590012723810227288103272D810427328183
S11385A00527378106273C81072741810827468113
S11385B009274B7E8607CE813FBD87A37E8607CEE3
S11385C08143BD87A37E8607CE814BBD87A37E866C
S11385D007CE8154BD87A37E8607CE815FBD87A366
S11385E07E8607CE8169BD87A37E8607CE8172BD54
S11385F087A37E8607CE817CBD87A37E8607CE8136
S113860085BD87A37E86071808CC00B0DD1518A6A3
S113861011810127238102275281032757810427CF
S11386205C81052761810627668107276B810827FE
S113863070810927757E86C4180818A61181002741
S11386400BCE80D8BD87A318097E86C4180818A647
S1138650118100270DCE80D8BD87A3180918097E83
S113866086C4CE80D3BD87A37E81D2CE80DFBD8772
S1138670A37E86C4CE80EABD87A37E86C4CE80F660
S1138680BD87A37E86C4CE8104BD87A37E86C4CE67
S1138690810FBD87A37E86C4CE811BBD87A37E8642
S11386A0C4CE8127BD87A37E86C4CE8133BD87A374
S11386B07E86C4BD87C127037E81D2CE8073BD87E9
S11386C0A37E81D21808CC00C0DD1518A611810044
S11386D027E1810127208102272A8103273481048D
S11386E0273E81052748810627528107275C810898
S11386F0276681092770BD87C12779CE8079BD8718
S1138700A37E81D2BD87C12774CE8085BD87A37E19
S113871081D2CE8098BD87A3BD87C127697E81D2CF
S1138720CE80A0BD87A3BD87C1275B7E81D2CE80CA
S1138730A9BD87A3BD87C1274D7E81D2CE80B3BD9D
S113874087A3BD87C1273F7E81D2CE80BBBD87A3CF
S1138750BD87C127317E81D2CE80C3BD87A3BD87AB
S1138760C127237E81D2CE80CBBD87A3BD87C127FD
S1138770157E81D2CE807EBD87A37E81D2CE808CB1
S1138780BD87A37E81D2CE806ADC151A8300C822FD
S113879006BD87A37E81D208CC00D0DD15BD87A39A
S11387A07E81D2A600816E271718DF1718DE1518F0
S11387B0A70018DE1708DC15C30001DD157E87A3AA
S11387C039180818A611810539CC302CB7102BF7AD
S11387D0102D8600B7102C86FEB710098604B7103A
S10887E03C860006398F
S10FF100B6102EB6102F97007A00193BB1
S105FFD6F10034
S105FFFE80007D
S9030000FC
